{
  "_format": "hh-sol-artifact-1",
  "contractName": "TrustVote",
  "sourceName": "contracts/TrustVote.sol",
  "abi": [
    {
      "inputs": [],
      "stateMutability": "nonpayable",
      "type": "constructor"
    },
    {
      "inputs": [
        {
          "internalType": "address",
          "name": "owner",
          "type": "address"
        }
      ],
      "name": "OwnableInvalidOwner",
      "type": "error"
    },
    {
      "inputs": [
        {
          "internalType": "address",
          "name": "account",
          "type": "address"
        }
      ],
      "name": "OwnableUnauthorizedAccount",
      "type": "error"
    },
    {
      "anonymous": false,
      "inputs": [
        {
          "indexed": true,
          "internalType": "uint256",
          "name": "electionId",
          "type": "uint256"
        },
        {
          "indexed": false,
          "internalType": "uint256",
          "name": "candidateId",
          "type": "uint256"
        },
        {
          "indexed": false,
          "internalType": "string",
          "name": "name",
          "type": "string"
        }
      ],
      "name": "CandidateAdded",
      "type": "event"
    },
    {
      "anonymous": false,
      "inputs": [
        {
          "indexed": true,
          "internalType": "uint256",
          "name": "electionId",
          "type": "uint256"
        },
        {
          "indexed": false,
          "internalType": "string",
          "name": "name",
          "type": "string"
        },
        {
          "indexed": false,
          "internalType": "uint256",
          "name": "startTime",
          "type": "uint256"
        },
        {
          "indexed": false,
          "internalType": "uint256",
          "name": "endTime",
          "type": "uint256"
        }
      ],
      "name": "ElectionCreated",
      "type": "event"
    },
    {
      "anonymous": false,
      "inputs": [
        {
          "indexed": true,
          "internalType": "uint256",
          "name": "electionId",
          "type": "uint256"
        }
      ],
      "name": "ElectionEnded",
      "type": "event"
    },
    {
      "anonymous": false,
      "inputs": [
        {
          "indexed": true,
          "internalType": "address",
          "name": "previousOwner",
          "type": "address"
        },
        {
          "indexed": true,
          "internalType": "address",
          "name": "newOwner",
          "type": "address"
        }
      ],
      "name": "OwnershipTransferred",
      "type": "event"
    },
    {
      "anonymous": false,
      "inputs": [
        {
          "indexed": true,
          "internalType": "uint256",
          "name": "electionId",
          "type": "uint256"
        },
        {
          "indexed": true,
          "internalType": "uint256",
          "name": "candidateId",
          "type": "uint256"
        },
        {
          "indexed": true,
          "internalType": "address",
          "name": "voter",
          "type": "address"
        }
      ],
      "name": "VoteCast",
      "type": "event"
    },
    {
      "anonymous": false,
      "inputs": [
        {
          "indexed": true,
          "internalType": "uint256",
          "name": "electionId",
          "type": "uint256"
        },
        {
          "indexed": true,
          "internalType": "uint256",
          "name": "oldCandidateId",
          "type": "uint256"
        },
        {
          "indexed": true,
          "internalType": "uint256",
          "name": "newCandidateId",
          "type": "uint256"
        },
        {
          "indexed": false,
          "internalType": "address",
          "name": "voter",
          "type": "address"
        }
      ],
      "name": "VoteUpdated",
      "type": "event"
    },
    {
      "anonymous": false,
      "inputs": [
        {
          "indexed": true,
          "internalType": "address",
          "name": "voter",
          "type": "address"
        }
      ],
      "name": "VoterRegistered",
      "type": "event"
    },
    {
      "inputs": [
        {
          "internalType": "uint256",
          "name": "_electionId",
          "type": "uint256"
        },
        {
          "internalType": "string",
          "name": "_name",
          "type": "string"
        }
      ],
      "name": "addCandidate",
      "outputs": [],
      "stateMutability": "nonpayable",
      "type": "function"
    },
    {
      "inputs": [
        {
          "internalType": "uint256",
          "name": "",
          "type": "uint256"
        },
        {
          "internalType": "uint256",
          "name": "",
          "type": "uint256"
        }
      ],
      "name": "candidates",
      "outputs": [
        {
          "internalType": "uint256",
          "name": "id",
          "type": "uint256"
        },
        {
          "internalType": "string",
          "name": "name",
          "type": "string"
        },
        {
          "internalType": "uint256",
          "name": "voteCount",
          "type": "uint256"
        }
      ],
      "stateMutability": "view",
      "type": "function"
    },
    {
      "inputs": [
        {
          "internalType": "string",
          "name": "_name",
          "type": "string"
        },
        {
          "internalType": "uint256",
          "name": "_startTime",
          "type": "uint256"
        },
        {
          "internalType": "uint256",
          "name": "_endTime",
          "type": "uint256"
        }
      ],
      "name": "createElection",
      "outputs": [],
      "stateMutability": "nonpayable",
      "type": "function"
    },
    {
      "inputs": [
        {
          "internalType": "string",
          "name": "_name",
          "type": "string"
        },
        {
          "internalType": "uint256",
          "name": "_startTime",
          "type": "uint256"
        },
        {
          "internalType": "uint256",
          "name": "_endTime",
          "type": "uint256"
        },
        {
          "internalType": "string[]",
          "name": "_candidateNames",
          "type": "string[]"
        }
      ],
      "name": "createElectionWithCandidates",
      "outputs": [],
      "stateMutability": "nonpayable",
      "type": "function"
    },
    {
      "inputs": [],
      "name": "electionCount",
      "outputs": [
        {
          "internalType": "uint256",
          "name": "",
          "type": "uint256"
        }
      ],
      "stateMutability": "view",
      "type": "function"
    },
    {
      "inputs": [
        {
          "internalType": "uint256",
          "name": "",
          "type": "uint256"
        }
      ],
      "name": "elections",
      "outputs": [
        {
          "internalType": "uint256",
          "name": "id",
          "type": "uint256"
        },
        {
          "internalType": "string",
          "name": "name",
          "type": "string"
        },
        {
          "internalType": "uint256",
          "name": "candidateCount",
          "type": "uint256"
        },
        {
          "internalType": "uint256",
          "name": "startTime",
          "type": "uint256"
        },
        {
          "internalType": "uint256",
          "name": "endTime",
          "type": "uint256"
        },
        {
          "internalType": "bool",
          "name": "exists",
          "type": "bool"
        }
      ],
      "stateMutability": "view",
      "type": "function"
    },
    {
      "inputs": [
        {
          "internalType": "uint256",
          "name": "_eId",
          "type": "uint256"
        },
        {
          "internalType": "uint256",
          "name": "_cId",
          "type": "uint256"
        }
      ],
      "name": "getCandidate",
      "outputs": [
        {
          "internalType": "string",
          "name": "name",
          "type": "string"
        },
        {
          "internalType": "uint256",
          "name": "vCount",
          "type": "uint256"
        }
      ],
      "stateMutability": "view",
      "type": "function"
    },
    {
      "inputs": [
        {
          "internalType": "uint256",
          "name": "_eId",
          "type": "uint256"
        }
      ],
      "name": "getElection",
      "outputs": [
        {
          "internalType": "string",
          "name": "name",
          "type": "string"
        },
        {
          "internalType": "uint256",
          "name": "cCount",
          "type": "uint256"
        },
        {
          "internalType": "uint256",
          "name": "sTime",
          "type": "uint256"
        },
        {
          "internalType": "uint256",
          "name": "eTime",
          "type": "uint256"
        }
      ],
      "stateMutability": "view",
      "type": "function"
    },
    {
      "inputs": [
        {
          "internalType": "uint256",
          "name": "_eId",
          "type": "uint256"
        }
      ],
      "name": "getResults",
      "outputs": [
        {
          "internalType": "string[]",
          "name": "names",
          "type": "string[]"
        },
        {
          "internalType": "uint256[]",
          "name": "counts",
          "type": "uint256[]"
        }
      ],
      "stateMutability": "view",
      "type": "function"
    },
    {
      "inputs": [
        {
          "internalType": "uint256",
          "name": "",
          "type": "uint256"
        },
        {
          "internalType": "address",
          "name": "",
          "type": "address"
        }
      ],
      "name": "hasVoted",
      "outputs": [
        {
          "internalType": "bool",
          "name": "",
          "type": "bool"
        }
      ],
      "stateMutability": "view",
      "type": "function"
    },
    {
      "inputs": [],
      "name": "owner",
      "outputs": [
        {
          "internalType": "address",
          "name": "",
          "type": "address"
        }
      ],
      "stateMutability": "view",
      "type": "function"
    },
    {
      "inputs": [
        {
          "internalType": "address",
          "name": "_voter",
          "type": "address"
        }
      ],
      "name": "registerVoter",
      "outputs": [],
      "stateMutability": "nonpayable",
      "type": "function"
    },
    {
      "inputs": [
        {
          "internalType": "address",
          "name": "",
          "type": "address"
        }
      ],
      "name": "registeredVoters",
      "outputs": [
        {
          "internalType": "bool",
          "name": "",
          "type": "bool"
        }
      ],
      "stateMutability": "view",
      "type": "function"
    },
    {
      "inputs": [],
      "name": "renounceOwnership",
      "outputs": [],
      "stateMutability": "nonpayable",
      "type": "function"
    },
    {
      "inputs": [
        {
          "internalType": "address",
          "name": "newOwner",
          "type": "address"
        }
      ],
      "name": "transferOwnership",
      "outputs": [],
      "stateMutability": "nonpayable",
      "type": "function"
    },
    {
      "inputs": [
        {
          "internalType": "uint256",
          "name": "_electionId",
          "type": "uint256"
        },
        {
          "internalType": "uint256",
          "name": "_candidateId",
          "type": "uint256"
        },
        {
          "internalType": "string",
          "name": "_newName",
          "type": "string"
        }
      ],
      "name": "updateCandidate",
      "outputs": [],
      "stateMutability": "nonpayable",
      "type": "function"
    },
    {
      "inputs": [
        {
          "internalType": "uint256",
          "name": "_eId",
          "type": "uint256"
        },
        {
          "internalType": "uint256",
          "name": "_cId",
          "type": "uint256"
        }
      ],
      "name": "vote",
      "outputs": [],
      "stateMutability": "nonpayable",
      "type": "function"
    },
    {
      "inputs": [
        {
          "internalType": "uint256",
          "name": "",
          "type": "uint256"
        },
        {
          "internalType": "address",
          "name": "",
          "type": "address"
        }
      ],
      "name": "voterChoices",
      "outputs": [
        {
          "internalType": "uint256",
          "name": "",
          "type": "uint256"
        }
      ],
      "stateMutability": "view",
      "type": "function"
    }
  ],
  "bytecode": "0x608060405234801561001057600080fd5b50338061003757604051631e4fbdf760e01b81526000600482015260240160405180910390fd5b61004081610046565b50610096565b600080546001600160a01b038381166001600160a01b0319831681178455604051919092169283917f8be0079c531659141344cd1fd0a4f28419497f9722a3daafe3b4186f6b6457e09190a35050565b61176f806100a56000396000f3fe608060405234801561001057600080fd5b50600436106101165760003560e01c806381a60c0d116100a2578063a9ff6df111610071578063a9ff6df114610292578063b384abef146102b5578063db994b4f146102c8578063f2fde38b146102f3578063f49a7a171461030657600080fd5b806381a60c0d1461021c5780638da5cb5b1461023d578063997d2830146102585780639d7107771461026f57600080fd5b8063498692a4116100e9578063498692a4146101995780634bd46448146101ac5780635e6fef01146101cd578063715018a6146101f25780637de14242146101fa57600080fd5b80631750a3d01461011b57806338db6dd3146101305780633bb76ef6146101435780634385963214610156575b600080fd5b61012e610129366004611008565b610319565b005b61012e61013e366004611070565b61049c565b61012e610151366004611092565b610502565b6101846101643660046110e5565b600460209081526000928352604080842090915290825290205460ff1681565b60405190151581526020015b60405180910390f35b61012e6101a7366004611111565b61066e565b6101bf6101ba3660046111c3565b6106d4565b60405161019092919061122b565b6101e06101db36600461124d565b610796565b60405161019096959493929190611266565b61012e610857565b61020d6102083660046111c3565b61086b565b604051610190939291906112a6565b61022f61022a36600461124d565b610921565b6040516101909291906112cf565b6000546040516001600160a01b039091168152602001610190565b61026160015481565b604051908152602001610190565b61028261027d36600461124d565b610b02565b604051610190949392919061136a565b6101846102a0366004611070565b60066020526000908152604090205460ff1681565b61012e6102c33660046111c3565b610bce565b6102616102d63660046110e5565b600560209081526000928352604080842090915290825290205481565b61012e610301366004611070565b610dc9565b61012e610314366004611399565b610e07565b610321610f49565b600083815260026020526040902060050154839060ff1661034157600080fd5b816103935760405162461bcd60e51b815260206004820152601e60248201527f43616e646964617465206e616d652063616e6e6f7420626520656d707479000060448201526064015b60405180910390fd5b60008481526002602081905260408220018054916103b083611400565b9190505550600060026000868152602001908152602001600020600201549050604051806060016040528082815260200185858080601f01602080910402602001604051908101604052809392919081815260200183838082843760009201829052509385525050506020918201819052878152600382526040808220858352835290208251815590820151600182019061044b90826114b8565b5060408201518160020155905050847fed8911b3df733b7d5f75724158e54478ea12e30f49c9d31b5261879f5b76586f82868660405161048d939291906115a1565b60405180910390a25050505050565b6104a4610f49565b6001600160a01b038116158015906104d557506001600160a01b03811660009081526006602052604090205460ff16155b6104de57600080fd5b6001600160a01b03166000908152600660205260409020805460ff19166001179055565b61050a610f49565b600084815260026020526040902060050154849060ff1661052a57600080fd5b6000858152600260205260409020600301548590421061058c5760405162461bcd60e51b815260206004820152601c60248201527f456c656374696f6e2068617320616c7265616479207374617274656400000000604482015260640161038a565b6000851180156105ae5750600086815260026020819052604090912001548511155b6105f15760405162461bcd60e51b8152602060048201526014602482015273125b9d985b1a590818d85b991a59185d1948125160621b604482015260640161038a565b8261063e5760405162461bcd60e51b815260206004820152601e60248201527f43616e646964617465206e616d652063616e6e6f7420626520656d7074790000604482015260640161038a565b600086815260036020908152604080832088845290915290206001016106658486836115c4565b50505050505050565b610676610f49565b61068286868686610e07565b60015460005b828110156106ca576106b8828585848181106106a6576106a6611685565b9050602002810190610129919061169b565b806106c281611400565b915050610688565b5050505050505050565b60008281526003602090815260408083208484529091528120600281015460018201805460609493929082906107099061142f565b80601f01602080910402602001604051908101604052809291908181526020018280546107359061142f565b80156107825780601f1061075757610100808354040283529160200191610782565b820191906000526020600020905b81548152906001019060200180831161076557829003601f168201915b5050505050915092509250505b9250929050565b600260205260009081526040902080546001820180549192916107b89061142f565b80601f01602080910402602001604051908101604052809291908181526020018280546107e49061142f565b80156108315780601f1061080657610100808354040283529160200191610831565b820191906000526020600020905b81548152906001019060200180831161081457829003601f168201915b505050506002830154600384015460048501546005909501549394919390925060ff1686565b61085f610f49565b6108696000610f76565b565b6003602090815260009283526040808420909152908252902080546001820180549192916108989061142f565b80601f01602080910402602001604051908101604052809291908181526020018280546108c49061142f565b80156109115780601f106108e657610100808354040283529160200191610911565b820191906000526020600020905b8154815290600101906020018083116108f457829003601f168201915b5050505050908060020154905083565b6000818152600260208190526040909120015460609081908067ffffffffffffffff81111561095257610952611419565b60405190808252806020026020018201604052801561098557816020015b60608152602001906001900390816109705790505b5092508067ffffffffffffffff8111156109a1576109a1611419565b6040519080825280602002602001820160405280156109ca578160200160208202803683370190505b50915060015b818111610afb576000858152600360209081526040808320848452909152902060010180546109fe9061142f565b80601f0160208091040260200160405190810160405280929190818152602001828054610a2a9061142f565b8015610a775780601f10610a4c57610100808354040283529160200191610a77565b820191906000526020600020905b815481529060010190602001808311610a5a57829003601f168201915b505050505084600183610a8a91906116e2565b81518110610a9a57610a9a611685565b6020908102919091018101919091526000868152600382526040808220848352909252206002015483610ace6001846116e2565b81518110610ade57610ade611685565b602090810291909101015280610af381611400565b9150506109d0565b5050915091565b606060008060008060026000878152602001908152602001600020905080600101816002015482600301548360040154838054610b3e9061142f565b80601f0160208091040260200160405190810160405280929190818152602001828054610b6a9061142f565b8015610bb75780601f10610b8c57610100808354040283529160200191610bb7565b820191906000526020600020905b815481529060010190602001808311610b9a57829003601f168201915b505050505093509450945094509450509193509193565b600082815260026020526040902060050154829060ff16610bee57600080fd5b60008381526002602052604090206003015483904210801590610c2257506000818152600260205260409020600401544211155b610c2b57600080fd5b3360009081526006602052604090205460ff16610c4757600080fd5b600083118015610c695750600084815260026020819052604090912001548311155b610c7257600080fd5b600084815260046020908152604080832033845290915290205460ff1615610d32576000848152600560209081526040808320338452909152902054838114610d2c5760008581526003602090815260408083208484529091528120600201805491610cdd836116fb565b909155505060008581526003602090815260408083208784529091528120600201805491610d0a83611400565b9091555050600085815260056020908152604080832033845290915290208490555b50610dc3565b600084815260046020908152604080832033808552908352818420805460ff19166001179055878452600583528184209084528252808320869055868352600382528083208684529091528120600201805491610d8e83611400565b90915550506040513390849086907f7fe1d4e6b34e228b5dc059fcdc037c71b216fb2417f47c171e505144a5e4f5fc90600090a45b50505050565b610dd1610f49565b6001600160a01b038116610dfb57604051631e4fbdf760e01b81526000600482015260240161038a565b610e0481610f76565b50565b610e0f610f49565b8215801590610e1d57508181115b610e2657600080fd5b60018054906000610e3683611400565b91905055506040518060c00160405280600154815260200185858080601f0160208091040260200160405190810160405280939291908181526020018383808284376000920182905250938552505050602080830182905260408084018790526060840186905260016080909401849052835483526002825290912083518155908301519091820190610ec990826114b8565b506040828101516002830155606083015160038301556080830151600483015560a0909201516005909101805460ff191691151591909117905560015490517fe7a0aae5d733e07e246dea86213a1ac1b0aa8554bde889bb75c12752f44e53d990610f3b908790879087908790611712565b60405180910390a250505050565b6000546001600160a01b031633146108695760405163118cdaa760e01b815233600482015260240161038a565b600080546001600160a01b038381166001600160a01b0319831681178455604051919092169283917f8be0079c531659141344cd1fd0a4f28419497f9722a3daafe3b4186f6b6457e09190a35050565b60008083601f840112610fd857600080fd5b50813567ffffffffffffffff811115610ff057600080fd5b60208301915083602082850101111561078f57600080fd5b60008060006040848603121561101d57600080fd5b83359250602084013567ffffffffffffffff81111561103b57600080fd5b61104786828701610fc6565b9497909650939450505050565b80356001600160a01b038116811461106b57600080fd5b919050565b60006020828403121561108257600080fd5b61108b82611054565b9392505050565b600080600080606085870312156110a857600080fd5b8435935060208501359250604085013567ffffffffffffffff8111156110cd57600080fd5b6110d987828801610fc6565b95989497509550505050565b600080604083850312156110f857600080fd5b8235915061110860208401611054565b90509250929050565b6000806000806000806080878903121561112a57600080fd5b863567ffffffffffffffff8082111561114257600080fd5b61114e8a838b01610fc6565b90985096506020890135955060408901359450606089013591508082111561117557600080fd5b818901915089601f83011261118957600080fd5b81358181111561119857600080fd5b8a60208260051b85010111156111ad57600080fd5b6020830194508093505050509295509295509295565b600080604083850312156111d657600080fd5b50508035926020909101359150565b6000815180845260005b8181101561120b576020818501810151868301820152016111ef565b506000602082860101526020601f19601f83011685010191505092915050565b60408152600061123e60408301856111e5565b90508260208301529392505050565b60006020828403121561125f57600080fd5b5035919050565b86815260c06020820152600061127f60c08301886111e5565b905085604083015284606083015283608083015282151560a0830152979650505050505050565b8381526060602082015260006112bf60608301856111e5565b9050826040830152949350505050565b6000604082016040835280855180835260608501915060608160051b8601019250602080880160005b8381101561132657605f198887030185526113148683516111e5565b955093820193908201906001016112f8565b50508584038187015286518085528782019482019350915060005b8281101561135d57845184529381019392810192600101611341565b5091979650505050505050565b60808152600061137d60808301876111e5565b6020830195909552506040810192909252606090910152919050565b600080600080606085870312156113af57600080fd5b843567ffffffffffffffff8111156113c657600080fd5b6113d287828801610fc6565b90989097506020870135966040013595509350505050565b634e487b7160e01b600052601160045260246000fd5b600060018201611412576114126113ea565b5060010190565b634e487b7160e01b600052604160045260246000fd5b600181811c9082168061144357607f821691505b60208210810361146357634e487b7160e01b600052602260045260246000fd5b50919050565b601f8211156114b357600081815260208120601f850160051c810160208610156114905750805b601f850160051c820191505b818110156114af5782815560010161149c565b5050505b505050565b815167ffffffffffffffff8111156114d2576114d2611419565b6114e6816114e0845461142f565b84611469565b602080601f83116001811461151b57600084156115035750858301515b600019600386901b1c1916600185901b1785556114af565b600085815260208120601f198616915b8281101561154a5788860151825594840194600190910190840161152b565b50858210156115685787850151600019600388901b60f8161c191681555b5050505050600190811b01905550565b81835281816020850137506000828201602090810191909152601f909101601f19169091010190565b8381526040602082015260006115bb604083018486611578565b95945050505050565b67ffffffffffffffff8311156115dc576115dc611419565b6115f0836115ea835461142f565b83611469565b6000601f841160018114611624576000851561160c5750838201355b600019600387901b1c1916600186901b17835561167e565b600083815260209020601f19861690835b828110156116555786850135825560209485019460019092019101611635565b50868210156116725760001960f88860031b161c19848701351681555b505060018560011b0183555b5050505050565b634e487b7160e01b600052603260045260246000fd5b6000808335601e198436030181126116b257600080fd5b83018035915067ffffffffffffffff8211156116cd57600080fd5b60200191503681900382131561078f57600080fd5b818103818111156116f5576116f56113ea565b92915050565b60008161170a5761170a6113ea565b506000190190565b606081526000611726606083018688611578565b602083019490945250604001529291505056fea26469706673582212202226ced8c9abfa8a9bf95399b982090604c15075b5655cf35a15d3a995c2c08c64736f6c63430008140033",
  "linkReferences": {},
  "deployedLinkReferences": {}
}